:020000040800F2
:10000000580B0020A1010008F7260008552200081F
:10001000F5260008E9140008E72A0008000000009F
:100020000000000000000000000000008F2A00080F
:10003000EB140008000000008D2A0008912A000837
:10004000BB010008BB010008BB010008BB010008A0
:10005000BB010008BB010008BB010008BB01000890
:10006000BB010008BB010008BB010008BB01000880
:10007000BB010008BB010008BB010008BB01000870
:10008000BB010008BB010008BB010008BB01000860
:10009000BB010008BB010008BB010008BB01000850
:1000A000BB010008BB010008BB010008BB01000840
:1000B000BB010008BB010008BB010008BB01000830
:1000C000BB010008BB010008BB010008BB01000820
:1000D000BB010008BB010008BB010008BB01000810
:1000E000BB010008BB010008BB01000800F002F8DA
:1000F00000F047F80AA090E8000C82448344AAF17B
:100100000107DA4501D100F03CF8AFF2090EBAE878
:100110000F0013F0010F18BFFB1A43F0010318473B
:100120003837000058370000103A24BF78C878C12B
:10013000FAD8520724BF30C830C144BF04680C60ED
:10014000704700000023002400250026103A28BF35
:1001500078C1FBD8520728BF30C148BF0B60704739
:10016000662902F05A87002070471FB500F0F0FBA7
:1001700004000020002102F04BFDE0601FBD10B51F
:1001800010BD00F0E5FC1146FFF7EFFF02F0F0FCB8
:1001900000F003FD03B4FFF7F2FF03BC00F046FDDF
:1001A0000948804709480047FEE7FEE7FEE7FEE70B
:1001B000FEE7FEE7FEE7FEE7FEE7FEE70448054947
:1001C000054A064B70470000E52A0008ED000008CC
:1001D00058050020580B0020580700205807002021
:1001E0000FB41CB5074B06AA7B44694600900598DE
:1001F00000F063FB0020694600F072FB1CBC5DF858
:1002000014FB0000F50600002DE9F0474FF0000A4E
:1002100089460446C0F820A02046E16888470028A7
:1002200076D0252806D0D4E901219047206A401CC9
:100230002062F1E7E168204600258847C4F81CA049
:1002400006460027C4F818A02A2E09D0304602F02E
:1002500088FC38B304EB8708303EC8F8186019E012
:1002600059F8041B204604EB87029161E168884736
:10027000012F064618D1E069002820DA25F0200574
:100280001DE0D8F8180000EB800006EB4000303885
:10029000C8F818002046E1688847064602F061FC6D
:1002A0000028EED1012F0AD02E2E08D12046E16879
:1002B00088477F1C0646022F45F02005C4DBA06955
:1002C000002803DA404245F00105A061E80701D0AB
:1002D00025F01005B6B1A6F14100192802D8203644
:1002E00045F400654A463146204625604D46FFF7F5
:1002F00037FF58B1012806D0ED1D25F0070000F1A9
:10030000080989E704E005F1040985E730468AE732
:10031000206ABDE8F08740EA010310B59B070FD1C2
:10032000042A0DD310C808C9121F9C42F8D020BA65
:1003300019BA884201D9012010BD4FF0FF3010BD1D
:100340001AB1D30703D0521C07E0002010BD10F8EB
:10035000013B11F8014B1B1B07D110F8013B11F8B1
:10036000014B1B1B01D1921EF1D1184610BD032A6F
:1003700040F2308010F0030C00F0158011F8013BC2
:10038000BCF1020F624498BF11F801CB00F8013BA9
:1003900038BF11F8013BA2F1040298BF00F801CB6D
:1003A00038BF00F8013B11F0030300F09E82083AC9
:1003B000C0F0088051F8043B083A51F804CBA0E89B
:1003C0000810F5E7121D5CBF51F8043B40F8043BF0
:1003D000AFF30080D20724BF11F8013B11F801CB25
:1003E00048BF11F8012B24BF00F8013B00F801CBF6
:1003F00048BF00F8012B70474FF000020429C0F0FD
:10040000128010F0030C00F01B80CCF1040CBCF146
:10041000020F18BF00F8012BA8BF20F8022BA1EB98
:100420000C0100F00DB85FEAC17C24BF00F8012B7D
:1004300000F8012B48BF00F8012B70474FF0000275
:1004400000B5134694469646203922BFA0E80C50CA
:10045000A0E80C50B1F12001BFF4F7AF090728BFA5
:10046000A0E80C5048BF0CC05DF804EB890028BF21
:1004700040F8042B08BF704748BF20F8022B11F04A
:10048000804F18BF00F8012B7047704770477047C6
:1004900070472DE9FF4F0C461E464FF0FF378BB0DB
:1004A000D2E90001DDF860800A908A46C1F30A555E
:1004B00005B93D46002108464FF00000BAF1000F93
:1004C00000F4400005DA00EB80004FF4400101EA3F
:1004D00050004FEA9059B9F1010F00DDB9460A9872
:1004E00050EA4A000ED044F61050A5F2FF354543BD
:1004F0002F14B8F1000F1ED07542291E1EDDC9F160
:1005000000021CE0B8F1010F4FF0000001D03021D3
:1005100003E0F24305E02154401CB042FBDB3046CF
:100520000022002121540B99C1F80880C1E9002064
:100530000FB0BDE8F08FBD1B6D1CDEE74A4600DA48
:10054000694206A800F08EFA06AB93E8070003ABF9
:1005500083E8070050460A9900F06FFB8DE807001A
:10056000A0F500501F3800900398002D0ADD42F2DC
:100570001F014A460844002303A90390684600F07F
:10058000D8FD09E0A0F500504A461F38002303A912
:100590000390684600F0E2FD8DE807000004000CBF
:1005A00003D04FF0FF30410800E01046B8F1000FD3
:1005B00003D00022009215461EE0751E05D400F0FF
:1005C000CBF9303262556D1EF9D5B346012208438E
:1005D00002D000227F1C04E02078302801D10022C4
:1005E0007F1E002A099784D01DE0112D07DA00F044
:1005F000B3F9303262556D1C50EA0102F5D108435F
:1006000002D00098C8B10EE00021681E05E0235C0E
:10061000625C63542254401E491C8142F7DBAB46A6
:10062000A81B401E0990002004F80B000B98099AA3
:10063000C0F80880C0E9002B7AE711264FF00008C7
:1006400057E72DE9F04F88460446D21D22F00701F6
:1006500091B0D1E90001CDE90A0102F05EFA02464B
:100660000B98C00F01D02D2007E02068810701D52D
:100670002B2002E0202101EAC000032A099001D0CA
:10068000072A05DB03464146204600F0ABF90BE1A3
:100690002078800601D5E06900E00620B8F1650FFA
:1006A000814606D0B8F1660F18D0B8F1670F70D147
:1006B00031E00020B9F1110F009001DB112301E0BE
:1006C00009F101030AAA01A90CA8FFF7E2FEDDE97E
:1006D0000C70002609F10105834647E001204B46D6
:1006E00000904FF000470AAA01A90CA8FFF7D1FE1D
:1006F000DDE90DB00C995D46002610B909F1010045
:100700000D18B9EB050003D4C0F1FF3609F101055E
:10071000A5EB09002BE0B9F1010F01DA4FF0010957
:100720000020B9F1110F0090484601DD112300E0CF
:1007300003460AAA01A90CA8FFF7ABFEDDE90C707D
:100740004D4600268346207800070AD4AB4500DAE0
:100750005D4601A8012D04DD411911F8011C302965
:1007600007D04F4502DA17F1040F04DA0120824660
:100770000FE06D1EEEE7002F02DCED1B3E4403E0B0
:10078000781CA84200DD7D1CB81B00F1010A4FF067
:1007900000472078000703D4AA4501DB4FF0FF3A59
:1007A0000021B7F1004F0DF143088DF8431024D01C
:1007B00002202B23002F01DA7F422D230A21021E63
:1007C000A0F1010000DC5FB197FBF1FC97FBF1F2B7
:1007D00001FB1C7C17460CF1300C08F801CDEEE74C
:1007E000A8F1010003702188090501D5452100E029
:1007F0006521A0F1010800F8011C09980FA9A1EBDF
:100800000807FF1D00B10120411901EBEA70A16941
:100810003844081A401EA0612078C00602D4204641
:10082000AFF30080099828B1D4E901219047206AEC
:10083000401C20622078C00622D52046AFF30080FD
:100840001EE0002E04DBB34502DD01A8805D00E060
:100850003020D4E901219047206A401C2062761C98
:10086000AAF101005FEA000A0AD100F071F8C0683D
:100870000168405CD4E901219047206A401C206255
:10088000281EA5F10105DCDC07E0D4E9012118F8F8
:10089000010B9047206A401C2062381EA7F1010717
:1008A000F3DC2046AFF30080032011B041E60000E6
:1008B00001694A1C02610878704700B58FB0CDE924
:1008C00001310021059105497944CDE90310114614
:1008D0006846FFF799FC0FB000BD0000E5FFFFFF81
:1008E0000A6802F8010B0A60704710B5203AC0F0A0
:1008F0000B80B1E81850203AA0E81850B1E8185021
:10090000A0E81850BFF4F5AF5FEA027C24BFB1E85D
:100910001850A0E8185044BF18C918C0BDE81040CE
:100920005FEA827C24BF51F8043B40F8043B08BFD7
:100930007047D20728BF31F8023B48BF11F8012B9E
:1009400028BF20F8023B48BF00F8012B7047000089
:10095000004870471405002030B5B0F10A024FEA94
:10096000900E71F100034EEA817EB0EB0E0061EB58
:1009700091014FEA101E4EEA017E10EB0E0041EB92
:1009800011114FEA102E4EEA016E10EB0E0041EBF2
:1009900011214FEA104E4EEA014E10EB0E0041EBD2
:1009A0001141401841F100014FEAD00040EA417086
:1009B0004FEAD10110EB80054FEA810444EA9074BC
:1009C00044EB01046D1944EB0404521BA3414FF0A6
:1009D000000348BF0A3200D530BD401C41F1000180
:1009E00030BD00002DE9F0411F4604460326016892
:1009F000072A01F4006004DB08B116A505E016A57E
:100A000003E008B115A500E015A521F01000206055
:100A1000A069C01EA0610FB1401EA0612046AFF3C7
:100A200000804FB1D4E9012138469047206A401C2C
:100A30002062C01C206206E0206AFAE7D4E90121A6
:100A400015F8010B9047761EF8D22046AFF30080D0
:100A5000BDE8F0814E414E006E616E00494E460089
:100A6000696E66002DE9F047814616468AB0354822
:100A700078440DC88DE80D0032487844801C03ACE2
:100A80000DC884E80D0041F69B300844372190FBE7
:100A9000F1F290FBF1F5A5F1800501FB12041B3C7E
:100AA00002D56442012000E00020DFF898A08046D3
:100AB0000027FA44AAF1BE0A0EE0E0070AD0324647
:100AC000684607EB470101230AEB810100F046FB72
:100AD0008DE8070064107F1C002CEED1194F7F4475
:100AE000AE3F19E0E80715D007EB04100DF1180A26
:100AF00090E80E008AE80E00C068F04201D1981913
:100B000008903246012306A903A800F027FB03AB97
:100B100083E807006D10641C002DE3D14FF0010342
:100B200032466946B8F1000F03A802D000F001FB7D
:100B300001E000F013FBC9E90001C9F808200AB080
:100B4000BDE8F087CC2D000000487047F404002079
:100B50007546FFF7F9FFAE4605006946534620F09B
:100B60000700854618B020B5FFF728FBBDE82040F8
:100B70004FF000064FF000074FF000084FF0000B59
:100B800021F00701AC46ACE8C009ACE8C009ACE80C
:100B9000C009ACE8C0098D46704710B50446AFF3F4
:100BA00000802046BDE81040FFF7F4BA4FF0013C4A
:100BB00050F8042B51F8043B9A4221D1A2EB0C03CC
:100BC000934313EACC1317D150F8042B51F8043B8C
:100BD0009A4215D1A2EB0C03934313EACC130BD129
:100BE00050F8042B51F8043B9A4209D1A2EB0C03B4
:100BF000934313EACC13DBD04FF00000704700BFE3
:100C0000D01A01BAB1FA81F101F0180122FA01F00B
:100C1000CB40C1F12001DBB2C0B2C01A2CFA01F303
:100C2000D11A914311EAC311E6D170470149182046
:100C3000ABBEFEE72600020070475FEA400C08BF2B
:100C400091F0000F4FEA8C234FEAC12243EA515141
:100C50004FEA1C5018BF00F5F0404FEA300018BFB3
:100C600041F000415FEA6C5C00F02980BCF1FF3F7D
:100C700008BF40F080407047130C06BF12044FF0CD
:100C8000100C4FF0000C130E04BF12020CF1080CF4
:100C9000130F04BF12010CF1040C930F04BF920058
:100CA0000CF1020CD30F04BF52000CF1010C1146E1
:100CB0004FF00002A0F11F00A0EB0C00704711F0F4
:100CC000004F08BF704731F000413FF4D5AF0B0C27
:100CD00006BF09044FF0100C4FF0000C0B0E04BFC0
:100CE00009020CF1080C0B0F04BF09010CF1040CF4
:100CF0008B0F04BF89000CF1020CCB0F04BF49001D
:100D00000CF1010CCCF12003A0EB0C0022FA03F350
:100D100002FA0CF241EA030100F10100704720F0F1
:100D20007F4C80EA030023F07F47ACEB070303F519
:100D30007C5300F0004003F1FF032DE980494FEAA6
:100D4000154B09B44FEA144325EA0B4E24EA034835
:100D50000FF2042606EB132749083E785FEA3202B9
:100D600003FB0667C7F5000707FB06F64FEA543793
:100D70004FEAD64606F1020607FB066CCCF1005C92
:100D80004FEA1C472CEA074C07FB06F40CFB06F560
:100D900004EB15464FEA961634BF00204FF0004092
:100DA0004FEAD13706FB07FC4FEA1C4C0CFB0BF754
:100DB000D21B03FB0CF761EB07010CFB0EF7B0EB4A
:100DC000074072EB17420CFB08F734BFA2EB074257
:100DD000B2EB074261EB17414FEA0C444FEA91072F
:100DE00006FB07FC4FEA1C4C0CFB0BF7B0EBC740B3
:100DF00072EB573203FB0CF734BFA2EBC742B2EBE6
:100E0000C74261EB57310CFB0EF7B0EBC70072EB3A
:100E100057720CFB08F734BFA2EBC702B2EBC70254
:100E200061EB5771039F4FEA816141EA921104EB34
:100E3000CC044FEAD1374FEA826206FB07FC42EA54
:100E400090124FEA80604FEA1C4C0CFB0BF7D21B50
:100E500003FB0CF761EB07010CFB0EF7B0EB07404F
:100E600072EB17420CFB08F734BFA2EB0742B2EB60
:100E7000074261EB17414FEA8C554FEA910704EBAB
:100E80009C2406FB07FC4FEA1C4C0CFB0BF7B0EB59
:100E9000C74072EB573203FB0CF734BFA2EBC742DB
:100EA000B2EBC74261EB57310CFB0EF7B0EBC7005A
:100EB00072EB57720CFB08F734BFA2EBC702B2EB20
:100EC000C70261EB577115EB4C254FEA816141EA8E
:100ED00092114FEA82624FEAD13742EA901206FB42
:100EE00007FC44F100044FEA80604FEA1C4C0CFB05
:100EF0000BF7D21B03FB0CF761EB07010CFB0EF7A2
:100F0000B0EB074072EB17420CFB08F734BFA2EBC3
:100F10000742B2EB074261EB174115EB1C154FEA94
:100F2000813141EA92414FEA823242EA90424FEAED
:100F300080304FEA0C7644F1000448EA03434EEA5D
:100F40000B484FF0000EB2EB080C71EB030724BF07
:100F5000624639464EEB0E0E4FF0000B0018524120
:100F600049414BEB0B0BB2EB080C71EB03077BF128
:100F7000000B24BF624639464EEB0E0E4FF0000BBD
:100F80000018524149414BEB0B0BB2EB080C71EBD3
:100F900003077BF1000B24BF624639464EEB0E0E71
:100FA00051EA020718BF46F0010616EB0E7655F11E
:100FB000000254F1000103D5BDE88901BDE80088B5
:100FC000BDE88901BDE80048B619524141EB010175
:100FD000A3F10103704780807F7E7D7C7B7A7978E6
:100FE000777676757473727171706F6E6E6D6C6CEE
:100FF0006B6A6A6968686766666564646363626190
:101000006160605F5F5E5E5D5D5C5C5B5B5A5A5910
:10101000595858575756565555555454535352527C
:101020005251515050504F4F4F4E4E4D4D4D4C4CD4
:101030004C4B4B4B4A4A4A4949494848484747471D
:10104000474646464545454444444443434343425A
:10105000424242414141002B9C4630D477002BD084
:101060001CB54FEA370703B44FF010004FF01001E2
:10107000BAF1000F06D0BCF1000FDCBF40F0080051
:1010800040F008014FF000000FBCBDE810400BF12C
:10109000010BBBF1010F08BF5FEA170722BF12F176
:1010A000010211F101014FF0004143F1000300F092
:1010B000004043EA00007047F9D35708D0E746EAFA
:1010C000064613F1400F4FEA16461FDD13F1200FBD
:1010D000DFBF16430A46002120335B42BED0C3F176
:1010E000200746EA064602FA07F74FEA164646EA9E
:1010F0000706C3F1200722FA03F201FA07F721FAE3
:1011000003F14FF0000342EA0702A7E746EA0206AE
:1011100046EA06464FEA164646EA0106BCBF46EADC
:101120000646360C4FF000034FF000024FF000016E
:1011300094E72DE9804C9A46934670B491E83800C4
:1011400007C831EA400C48BF34EA430C03D5FFF727
:10115000E6FDFFF780FFF0BCBDE8008C2DE9804C78
:101160009A46934670B491E8380007C810F0804F53
:1011700008BF13F0804F03D100F005F8FFF76BFFB5
:10118000F0BCBDE8008C20F07F4780EA030023F02C
:101190007F4C07EB0C03A3F57C5300F00040A3F158
:1011A000FE0392F0000F00F0B38095F0000F00F006
:1011B00077802DE901494FEA11404FEA144621EAB0
:1011C000004800FB06FC24EA064708FB06F607FB7E
:1011D00008F800FB07F718EB06484CEB164C4FEAF3
:1011E000124B18EB07484FEA15464CEB174022EA22
:1011F0000B4E0BFB06FC25EA06470EFB06F607FB2B
:101200000EFE0BFB07F71EEB064E4CEB164C4FF099
:1012100000061EEB074E4CEB174B18EB0B0840F18A
:10122000000018EB0E0B58EB000840F100008F1A7D
:101230004FF000013CBFC943661B14BFB5EB040C63
:1012400000213CBFC943F61B4FEA17444EEA8E0EFD
:1012500027EA04454FEA1C4704FB07622CEA074CC7
:1012600005FB07F70CFB05F604FB0CFC16EB074629
:1012700042EB174216EB0C4642EB1C421BEB0606F8
:1012800058EB0202414146EA9E0601D5BDE80189BC
:10129000B619524141EB0101A3F10103BDE80189F7
:1012A0004FEA14454FEA114724EA054621EA074C64
:1012B00005FB07F406FB07F70CFB06F105FB0CFC2E
:1012C00011EB074144EB17444FEA124711EB0C4175
:1012D00044EB1C4422EA074C05FB07F206FB07F728
:1012E0000CFB06F605FB0CFC16EB074642EB17421F
:1012F00016EB0C4642EB1C456A1854F1000148BF3E
:101300007047B619524141EB0101A3F10103704747
:1013100095F0000F37D04FEA11424FEA144721EA07
:10132000024624EA074C02FB07F106FB07F70CFB19
:1013300006F402FB0CFC14EB074441EB17414FEAA7
:10134000154714EB0C4441EB1C4125EA074C02FB0A
:1013500007F506FB07F70CFB06F602FB0CFC16EB89
:10136000074645EB174516EB0C4645EB1C42121998
:1013700051F1000148BF7047B619524141EB0101DC
:10138000A3F1010370474FEA14454FEA114724EADD
:10139000054621EA074C05FB07F106FB07F70CFBA6
:1013A00006F24FF0000605FB0CFC12EB074241EB86
:1013B000174112EB0C4251EB1C4148BF7047921889
:1013C00041EB0101A3F101037047000001484068AF
:1013D00070470000040000201CB5282000F088F8A9
:1013E0000121684600F05EF89DF80000000706D471
:1013F00003A003210068019001A800F061F81CBD62
:10140000BE08000070B522A086B0006802900321DB
:1014100002A800F055F84B2000F06AF80621684653
:1014200000F040F89DF8000000062FD49DF803401E
:101430009DF80210200900EB01109DF8011000EB4F
:10144000013001F095FC054620079DF80410000BC3
:1014500000EB01209DF80510084401F089FC0446CA
:101460000C49284601F098FC6FF01306314601F054
:1014700008FE094D09496860204601F08DFC31469F
:1014800001F0FFFD064901F053FD286006B070BD74
:10149000AC3300000000C8420400002000004843B4
:1014A0000000484208B54FF0FF3200920B4602465A
:1014B0007021024800F0E8F908BD00001C0000207F
:1014C00008B54FF0FF3200920B46024670210248E9
:1014D00000F002FB08BD00001C000020014800686D
:1014E0007047000004000020FEE7704772B6FEE778
:1014F00070B5044600F0FEF80546601C02D00448B2
:101500000078044400F0F6F8401BA042FAD370BD06
:101510000C0000202DE9F84FDFF8B8910024A9F164
:10152000040B23460F2709F1040AABF1040EC9E0AE
:101530000125A5402A40AA427DD1674ED1F804C0BA
:10154000ACEB0608B44532D014DCBCF1030F3AD042
:1015500009DCBCF1000F2AD0BCF1010F1CD0BCF19A
:10156000020F31D11DE0BCF1110F17D0BCF1120FE9
:101570002AD119E0B8F5881F19D006DCB8F5803FEC
:1015800015D0B8F5801F1FD111E0B8F5001F0ED09F
:10159000B8F5041F18D10AE0CB6815E0CB681B1D15
:1015A00012E0CB6808330FE0CB680C330CE08B689B
:1015B0002BB1012B4FF0080303D0456104E0042355
:1015C00002E0056100E00023FF2A01D8064601E0A1
:1015D00000F104064FEA840501D9A5F12005D6F8EB
:1015E000008007FA05FC28EA0C0803FA05F548EA2A
:1015F0000508C6F800804D68ED0062D5374DAE692C
:1016000046F00106AE61AD6924F0030605F0010560
:101610000095334D06EB050CDCF80850A607360F95
:1016200007FA06F825EA0805DFF8B880404503D137
:101630004FF0000817E044E0DFF8AC80404502D1ED
:101640004FF001080FE0DFF8A480404502D14FF0D1
:10165000020808E0DFF89880404502D14FF0030807
:1016600001E04FF0040808FA06F848EA0508CCF84B
:1016700008804D68D9F80060ED024D4601D516434B
:1016800000E096432E604D68DAF80060AD025546E2
:1016900001D5164300E096432E604D68DBF80060EC
:1016A000AD035D4601D5164300E096432E604D68BC
:1016B000DEF80060ED03754601D5164300E0964361
:1016C0002E60641C0D682A46E5407FF431AFBDE80A
:1016D000F88F0000080401400000111000100240C3
:1016E0000000014000080140000C014000100140D2
:1016F0000014014001488068704700000C00002081
:1017000070B5040025D094F83D00002520B984F878
:101710003C50204600F076FA242084F83D002068F2
:10172000016821F0010101602068016841F4004175
:1017300001602068016821F40041016000F0B0FB05
:101740004D4A6168914201D84C4900E04C498842B9
:1017500001D2012070BD4B492368B0FBF1F15E68F6
:1017600026F03F060E435E606368934206D94FF44D
:10177000967359434FF47A73B1FBF3F12368491C14
:101780001E6A26F03F06314319626168914210D803
:101790004900401EB0FBF1F2521CC2F30B02042AB6
:1017A00001D2042022E0B0FBF1F0401CC0F30B009A
:1017B0001CE0A268F2B301EBC10303EB0116431E68
:1017C000B3FBF6F35B1C43F480431B0549D092B393
:1017D00001EBC10202EB0111401EB0FBF1F0401C15
:1017E000C0F30B0040F4804040F400402168CA6917
:1017F0004CF6FF739A431043C861D4E907100143C4
:101800002068026822F0C00211430160D4E903019C
:1018100001432068826848F2FF339A431143816094
:10182000D4E9050108432168CA6822F0FF02104389
:10183000C86001E00EE016E02068016841F0010197
:1018400001602564202084F83D00256384F83E5023
:10185000002070BD01EB4106431EB3FBF6F35B1C99
:10186000B3E70120C2E701EB4101401EB0FBF1F0FC
:10187000401CC0F30B00B7E7A086010080841E0067
:1018800000093D0040420F002DE9F84F0025DDF82A
:101890002890984617468A4604460095FFF72AFF87
:1018A000064694F83D0020287AD119230122864962
:1018B0002046009600F0D6FD0028F5D194F83C00B3
:1018C00001286DD0012084F83C0020680168C90718
:1018D00003D1016841F0010101602068016821F431
:1018E00000610160222084F83D00102084F83E0051
:1018F00025646762A4F82A80608D20857348E062C1
:1019000033464A465146204600F0BCFC00287CD1B4
:10191000208DDFF8BC81202768B1012814D002286F
:10192000206801681ED041F480610160206841692F
:1019300080690090BBE0206841698169009101687D
:1019400041F400710160B2E02068016821F4806117
:10195000016072B62068416981690091016841F4B3
:1019600000710AE041F40061016072B620684169CB
:1019700081690091016821F48061016062B696E09E
:10198000032865D801280CD002284B464FF00002EE
:101990004146204600960BD000F064FDA8BB0CE049
:1019A00090E032464946204600F002FE68BB71E0F6
:1019B00000F058FD48BB72B633E02068016821F49E
:1019C0008061016072B620680069616A0870606AAF
:1019D000401C6062208D401E2085608D401E608509
:1019E0003C4846F2A8110068B0FBF1F0C0EBC00023
:1019F00000EB80000090401E009007D020684069F6
:101A0000C04340070DD50098F5E727E044F8305F64
:101A10006773A573206940F02000206162B62573CA
:101A20001CE02068016841F40071016020680069D1
:101A3000616A0870606A401C6062218D491E2185C0
:101A4000618D491E618562B621680969017025E0D2
:101A500032464946204600F0ABFD10B10120BDE8FA
:101A6000F88F20680069616A0870606A401C6062D3
:101A7000208D401E81B22185608D401E60852068CA
:101A80004269D243520712D4032903D1016821F4D9
:101A90008061016020680069616A0870606A401CAA
:101AA0006062208D401E2085608D401E6085208DE7
:101AB00000287FF465AF84F83D7084F83E5084F8C8
:101AC0003C50CCE70220CAE7020010000000FFFFF4
:101AD00004000100180000202DE9F84F1F46904631
:101AE0008A460446DDF82890FFF704FE054694F880
:101AF0003D0020287FD1192301224049204600952E
:101B000000F0B0FC002876D194F83C00012872D097
:101B1000012084F83C0020680168C90703D10168EE
:101B200041F0010101602068016821F40061016059
:101B3000212084F83D00102084F83E000026266411
:101B4000C4F824806785608D20852D48E0622B468F
:101B50004A465146204600F00BFC90B92068416986
:101B60008069009036E02A464946204600F058FD3C
:101B700050B1206C042804D12068016841F4007140
:101B800001600120BDE8F88F606A21680078086173
:101B9000606A401C6062618D491E6185218D491E0D
:101BA00089B2218522685369DB435B070BD451B1AD
:101BB00000781061606A401C6062608D401E608524
:101BC000208D401E20852A464946204600F01EFCF6
:101BD0000028CED1208D0028C5D154F83D0B0168D6
:101BE00041F400710160202004F81E09E677667751
:101BF0000020C7E7FFE70220C4E700000200100052
:101C00000000FFFF10B586B0002100910191029104
:101C1000039100680F4988421AD10F4CA06940F027
:101C20000800A061A069694600F008000490C02087
:101C3000009012200190032003900848FFF76AFCEF
:101C4000E06940F40010E061E06900F400100490E5
:101C500006B010BD0054004000100240000C0140CE
:101C60000248816802781144816070470C000020AE
:101C7000074810B5016841F010010160032000F031
:101C800067F80F2000F006F800F024F8002010BDDF
:101C90000020024070B50D4D04464FF47A7128784B
:101CA000B1FBF0F00A490968B1FBF0F000F0BEFAB0
:101CB00048B9102C07D200222146501E00F028F807
:101CC00000206C6070BD012070BD00000C00002081
:101CD000180000200C4808B5816941F001018161BC
:101CE000816901F001010091C16941F08051C16138
:101CF000C06900F0805000900448416821F0E06124
:101D000041F00071416008BD001002400000014038
:101D1000F0B40E4B1B680C46C3F30223C3F1070556
:101D2000042D00D90425191D072901D2002300E044
:101D3000DB1E012606FA05F1491E214099409E400E
:101D4000761E16403143F0BC00F0FBBE0CED00E007
:101D5000064900F0070208684FF6FF03184040EA02
:101D60000220034A10430860704700000CED00E0B9
:101D70000000FA052DE9F0470F46050061D0434EFB
:101D8000306800F00700B84209D2306820F0070040
:101D900038433060306800F00700B84251D12868FD
:101DA0003B4C810712D5400703D5606840F4E060E2
:101DB00060602878000703D5606840F46050606078
:101DC0006068A96820F0F000084360602878C007C8
:101DD00028D06868012810D02168022810D089070F
:101DE00000292EDA616821F0030101436160FFF7E9
:101DF00081FC804641F288390DE021688903EFE7D4
:101E00008901EDE7FFF776FCA0EB0801494502D90F
:101E10000320BDE8F0876068696800F00C00B0EB53
:101E2000810FEFD1306800F00700B8420BD930685D
:101E300020F0070038433060306800F00700B842F7
:101E400001D00120E5E72878400705D56068E968FA
:101E500020F4E060084360602878000706D56068D9
:101E6000296920F4605040EAC100606000F028F861
:101E70006168084AC1F30311515CC8400649086013
:101E800006480068FFF706FF0020C2E70020024076
:101E900000100240AA37000818000020100000209F
:101EA0000448054900684968044AC1F30221515CAD
:101EB000C84070471800002000100240BA370008E0
:101EC0000E4A51680E4801F00C03042B11D0082B68
:101ED0000FD10C48C1F38343C903C05C0AD55168D4
:101EE000084AC1F34041921E515C054A5043B0FB81
:101EF000F1F0704704494843704700000010024069
:101F000000127A009A37000800093D002DE9F84FC9
:101F1000040070D02078C04DC00749D06868C0F375
:101F20008100012807D06868C0F38100022809D128
:101F30006868C00306D52868800339D56068002822
:101F4000E7D035E06068B0F5803F0BD010B1B0F558
:101F5000A02F11D0286820F480302860286820F451
:101F6000802002E0286840F480302860606890B1EA
:101F7000FFF7C0FB06460AE0286840F4802028608E
:101F8000F0E700BFFFF7B6FB801B642873D8286812
:101F90008003F7D50CE0FFF7ADFB064605E000BF78
:101FA000FFF7A8FB801B6428F0D828688003F7D4CB
:101FB00020789A4E80074FF001094FF0000839D57C
:101FC000686810F00C0F07D06868C0F38100022821
:101FD00009D16868C00306D42868800714D5206931
:101FE000012808D110E02069B0B1C6F80090FFF7D1
:101FF00081FB074605E00AE1FFF77CFBC01B0228D6
:10200000C4D828688007F7D52868616920F0F800EF
:1020100040EAC10028600DE0C6F80080FFF76AFBC7
:10202000074604E0FFF766FBC01B022823D8286898
:102030008007F7D4207800072CD57948A169D9B159
:10204000C0F80090FFF756FB074604E0FFF752FB8D
:10205000C01B02280FD8686A8007F7D571484FF473
:10206000FA510068B0FBF1F0009000BF0098411EEB
:102070000091FAD20EE080E0C0F80080FFF73AFB52
:10208000074604E0FFF736FBC01B022875D8686AD4
:102090008007F7D42078400760D5E8690027C000A2
:1020A00008D4E86940F08050E861E869012700F051
:1020B000805000905C480168C90513D401688346CC
:1020C00041F480710160FFF715FB824606E000BF16
:1020D000FFF710FBA0EB0A0064284ED8DBF80000E5
:1020E000C005F5D5E06801280AD008B1052813D04D
:1020F000286A20F001002862286A20F0040002E02B
:10210000286A40F001002862E06841F2883B98B1FB
:10211000FFF7F0FA82460BE0286A40F004002862DC
:10212000EEE700BFFFF7E6FAA0EB0A0159455AD8DF
:10213000286A8007F6D50CE0FFF7DCFA824605E056
:10214000FFF7D8FAA0EB0A0159454CD8286A800756
:10215000F6D41FB1E86920F08050E861E06988B3E7
:102160006968C1F38101022944D00228C6F8608061
:1021700004D0FFF7BFFA044638E034E0FFF7BAFABC
:10218000074604E0FFF7B6FAC01B02282BD82868E0
:102190008001F7D4206AB0F5803F05D16868A16856
:1021A00020F4003008436860D4E9080108436968F6
:1021B00021F4741108436860C6F86090FFF79AFA3A
:1021C000044606E025E000BFFFF794FA001B022852
:1021D00009D828688001F7D51BE000BFFFF78AFA0D
:1021E000001B022802D90320BDE8F88F286880016F
:1021F000F4D40EE00128F7D06868226A00F4803138
:10220000914204D1616A00F47010884201D001202B
:10221000EAE70020E8E70000001002400000424228
:1022200080044242180000200070004010B5401E9B
:10223000B0F1807F01D3012010BD4FF0E024606138
:102240000F21601700F07DFC0020A06107202061B5
:10225000002010BDFEE701684A69D24352050FD441
:102260006FF480624A61002140F8301F20224273DF
:102270008173026942F00402026101730120704718
:10228000002070472DE9F84F0446C06A1E46934669
:102290000D4621680A6842F480620A60082807D067
:1022A000012805D010F5803F02D0206B112804D101
:1022B0002068016841F4807101604FF001195B46AC
:1022C000002249462046009600F0CCF84FF40078F2
:1022D00040B120680068C00501D5C4F840800320E3
:1022E000BDE8F88F2069DFF884A0B0F5804F0FD0EB
:1022F0000620216800EAD51747F0F0000861334650
:102300005A460AF10601204600F0F4F858BB03E0F3
:10231000E8B240F001001CE02168E8B208613346F1
:102320005A465146204600F0E5F8E0B92068416978
:1023300081690091016841F4807101605B4600226F
:1023400049462046009600F08DF80028C1D147F09C
:10235000F1002168086133465A465146204600F094
:10236000C9F80028BCD00120BAE700000200010033
:10237000F8B50446C06A1E460D461746082807D021
:10238000012805D010F5803F02D0206B122804D11F
:102390002068016841F480710160134600224FF00B
:1023A00001112046009600F05DF840B120680068F9
:1023B000C00502D54FF4007020640320F8BD2069E9
:1023C000B0F5804F0ED00620216800EAD51040F00D
:1023D000F000086133463A460B49204600F08AF87F
:1023E00078B902E005F0FE0000E0E8B2216808617B
:1023F000054933463A46891F204600F07BF80028FD
:10240000DCD00120F8BD00000800010070B51646C0
:102410000D4604461EE02046FFF71DFF08B10120CF
:1024200070BD681C16D0FFF765F9801BA84200D864
:1024300085B920684069C04340070BD5002044F8A7
:10244000300F20216173A073216941F020012161C7
:102450002073E4E720684069C0434007DBD40020D4
:1024600070BD00002DE9F047984617460D4604461A
:10247000C1F30746DDF820902AE000BFB8F1FF3F26
:1024800026D0FFF737F9A0EB0901414502D8B8F192
:10249000000F1DD12068012E16D0806925EA0000AA
:1024A0000004000C12D00020B84211D1002044F8E2
:1024B000300F20216173A073216941F02001216157
:1024C00020730120BDE8F0874069E7E70120EBE7D2
:1024D0002068012E0AD0806925EA00000004000C63
:1024E00006D00020B842C9D00020EBE74069F3E7EE
:1024F0000120F7E72DE9F047984616460D460446B9
:102500004FF000094FF0200AC1F3074723E020688D
:102510004069C043400515D42068016841F400714A
:10252000016021686FF480604861C4F8309084F8DD
:102530003DA084F83E90216C41F00401216484F8B0
:102540003C9021E0701C06D0FFF7D4F8A0EB080007
:10255000B04203D816B1012F1FD021E02068012F0F
:1025600015D0806925EA00000004000C18D000BFD7
:1025700044F8309F84F80DA084F80E90216941F052
:102580002001216184F80C900120BDE8F0874069AA
:1025900025EA00000004000CEAD12068406901E04F
:1025A0002068806925EA00000004000CAFD1ECE748
:1025B0002DE9F041002590460E460446202728E0EC
:1025C0004069C043C0060CD454F8301B6FF01000B3
:1025D000486144F810596777A577206A206225770B
:1025E00014E0FFF787F8A0EB0800B04200D886B9E6
:1025F00020684069C04340060BD544F8305F6773DC
:10260000A573206940F02000206125730120BDE8FA
:10261000F08120684169C9434906D1D40020F6E71A
:1026200070B516460D4604461EE02046FFF713FE21
:1026300008B1012070BD681C16D0FFF75BF8801B45
:10264000A84200D885B920684069C04300060BD570
:10265000002044F8300F20216173A073216941F0FC
:10266000200121612073E4E720684069C04300062F
:10267000DBD4002070BD00000D4808B5816941F031
:1026800020018161816901F020010091816941F09F
:1026900004018161816901F004010091816941F0C7
:1026A00008018161806900F00800009008BD000009
:1026B000001002400D4810B50B4901600C49416003
:1026C00000214FF480428160C0E9031241618161C1
:1026D000C1610162FFF714F8002803D0BDE8104083
:1026E000FEF704BF10BD0000005400401C00002095
:1026F000A0860100FEE7FEE710B5AE2000F0DAF894
:10270000202000F0D7F8102000F0D4F8B02000F01E
:10271000D1F8C82000F0CEF8002000F0CBF810204F
:1027200000F0C8F8402000F0C5F8812000F0C2F8A1
:10273000DF2000F0BFF8A12000F0BCF8A62000F0D8
:10274000B9F8A82000F0B6F83F2000F0B3F8A420B4
:1027500000F0B0F8D32000F0ADF8002000F0AAF8A7
:10276000D52000F0A7F8F02000F0A4F8D92000F060
:10277000A1F8222000F09EF8DA2000F09BF8122049
:1027800000F098F8DB2000F095F8202000F092F897
:102790008D2000F08FF8142000F08CF800F008F87D
:1027A00000F050F9BDE81040AF2000F083B8000001
:1027B0004FF480610148FDF71FBE0000F1000020CA
:1027C0003CB51C78059D203ACDE900455D68E41DC7
:1027D0005B78E408544303FB045200F0CBF83CBDA3
:1027E0002DE9FF4F18785978C01DC00800254843CF
:1027F000001D83B01C46174600F0FF0A2AE0781936
:10280000814600F071F95FEA000826D000260AE050
:102810006168484606FB0A1B42465946FDF77BFDA8
:10282000F0B1761CF6B2207AB042F1D81098009040
:10283000E368B8F1010F20D0DDE903012022FFF7A2
:10284000BFFFE068417803980844C0B2039005EBED
:10285000080085B2785D0028D1D107B0BDE8F08FBF
:1028600010992078CDE900016378DDE903010BF1CF
:10287000040200F07FF86178E5E77A5DDDE90301A5
:10288000FFF79EFFE0686D1CADB2417803980844E5
:10289000C0B20390DEE7000008B54FF0FF320092AF
:1028A0000B46024678210248FFF716F908BD0000E2
:1028B0001C0000200249487002210148FFF7ECBFCC
:1028C000020000202DE9FC4180460720CDE90003ED
:1028D00001F00704CD08164602FA04F01F46C2B202
:1028E00023464146284600F089F8002C0CD0601E93
:1028F000C0B2CDE90007C4F1080026FA00F2681C56
:102900000023414600F07AF8BDE8FC812DE9FC4344
:1029100001F007061446CD089846814601F00701EC
:1029200006EB080204FA01F0099F082A16D90721CC
:10293000CDE90017C2B233464946284600F05EF89A
:1029400008EB06000938C0B2CDE90007C6F108005F
:1029500024FA00F2681C0023494607E0521ED1B257
:10296000CDE90017C2B233464946284600F046F882
:10297000BDE8FC832DE9FF4F82B01D460F989346BA
:10298000C70800F0070088460026019018E002986A
:1029900000240BEB060A00EB06090DE004FB05F032
:1029A000109B10F80A2008EBC400C1B209F0FF0028
:1029B000FFF788FF641CE4B2BC42EFD3761CF6B28A
:1029C000AE42E4D30198002815D005FB07F6002499
:1029D00008EBC7070DE010980090311902981BF81A
:1029E00001202044F9B2C0B2019BFFF78FFF641CA5
:1029F000E4B2AC42EFD306B0BDE8F08FF0B50828E2
:102A0000DDE9056419D2802917D20CB1D243D2B2C4
:102A1000FF25761C05FA06F6C3F10803084F46EABF
:102A20000204DD4007EBC017044B785CB2432C4333
:102A3000AA4320401A7010437854F0BD00000020D3
:102A4000F100002070B5104D40200024287005F1E1
:102A5000810600BF04F1B000C0B2FFF72BFF0020D9
:102A6000FFF728FF1020FFF725FF06EBC411802297
:102A7000681CFDF77CFC81210348FFF70DFF641CF7
:102A8000E4B2082CE6D370BD700000207047704798
:102A9000FFF7E6B810B590B028216846FDF7CEFCE8
:102AA00014210AA8FDF7CAFC02200090012004901E
:102AB00010200024059007946846FFF727FA08B114
:102AC00072B6FEE70F20CDE90A040C940D940021A4
:102AD0000AA80E94FFF74EF9002801D072B6FEE75F
:102AE00010B010BD7047FEE70078010601D4012048
:102AF00070470621B1EB501F01D1022070470E2113
:102B0000B1EB101F01D1032070471E21B1EBD00F94
:102B100001D10420704700207047490050EAC120CD
:102B200018BF04204A0D18BF40F0010040F2FF72A8
:102B3000B2EB515F08BF40F00200012808BF05203A
:102B400070470907090E002804DB00F1E02080F837
:102B50000014704700F00F0000F1E02080F8141D11
:102B6000704730380A2801D2012070470020704792
:102B70008EB0FFF77DF8FFF78DFFFFF77DFDFFF7C4
:102B800099FD1420FEF7B4FCFFF7B6FDFEF724FC18
:102B900000244FF47A7600BFFEF734FCFEF79EFC6B
:102BA0000746FEF713FC0546FFF702FE384600F025
:102BB0004BF802460B4610A101A8FDF711FB0021BE
:102BC0000F4B01AA08460094FFF70AFE284600F0C2
:102BD0003BF802460B460BA101A8FDF701FB084B91
:102BE00001AA122100200094FFF7FAFDFFF72AFF47
:102BF0003046FEF77DFCCFE7543A252E31660000C3
:102C000088370008483A252E316625250000000047
:102C100010B500290AD00878002807D00548784464
:102C2000FDF7C4FF002801D0002010BD0248784401
:102C300010BD00005A0C0000520C00000808A0F55E
:102C400000114FEA3101704743004FEAD30C4FEABD
:102C50003C0C43401FBF40070CF1605113F0FE4F86
:102C600070471CF0006F03D100200CF0004170474A
:102C70000CF0004343EA507010B540EACC0000F07D
:102C80000CF900BF000000924FEA0001FFF7D6BF29
:102C90004FF000414FF00000A1F500217047000007
:102CA00090EA010F48BF81F0004100F14881421ACB
:102CB0003CBF801A89184FEAD0524FF07F4C1CEA73
:102CC000410FA2EBD15318BF9CEA026F00F03B808A
:102CD0004FF0004C4CEA00204CEA012121FA03FCA1
:102CE00010EB0C0C1ED202F1FF325FEA1C2040EB0D
:102CF000C25038BF70471CF07F0F4FEA400C18BF1E
:102D0000BCF17F4F38BF7047C3F12003994008BF23
:102D100020F00100BCF17F4F38BF7047A0F1C040E8
:102D200000F001B94FEA3C00000A40EBC25028BF56
:102D30001CF0FF0F4FEA400CE6D018BFBCF17F4FEC
:102D400038BF7047EAE79CEA026F05D010EA5C0FD3
:102D500008BF00F00040704710B500F09EF800BFBB
:102D600064FBBE3E014800F05AB900BF0000C07FBE
:102D7000B0FA80F310FA03F2C3F19D030AD0D9052B
:102D800001EB1220530638BF704700F1010008BF65
:102D900020F00100704700004FF47F0C1CEAD012B5
:102DA0001EBF1CEAD11392EA0C0F93EA0C0F00F03D
:102DB000478090EA010F48BF42F480724FF0004C08
:102DC0004CEA00204CEA012102EB0302A0FB0113B4
:102DD000A2F50002002918BF43F001035B0028BFE1
:102DE0004FEA330342EB22425FEA132C4CEBC25012
:102DF0002EBFBCEB436FB2F57C0F70474FEA036CFC
:102E0000BCF1004F08BF20F00100B2F57C0F38BFC5
:102E100070470BD582F0FF0212F5803FC8BF7047A4
:102E200000F1C040D8BF00F00040704700F5000C32
:102E30005FEA4C0C48BF7047B0F1C04000F073B877
:102E400090EA010F0CEAD11348BF42F48072624548
:102E500038BF634504D280EA010000F000407047AB
:102E600010B500F01AF800BF8900013E00F007B865
:102E700000F009B85FEA410C5FEA1C6C08D080EAF8
:102E8000010000F050B85FEA400C5FEA1C6CF6D11C
:102E90004FF00040A0F5800070470EF1020E2EF0BA
:102EA000030E5EF8044B244204D44FEA4102B2F10F
:102EB0007F4F11D84FEA4003B3F17F4F0CD80ED1AA
:102EC0004FEAD07CB2F17F4F0CEB4C0C0CF1020CB2
:102ED00008BF4CEBD17C04E04FF0080C01E04FEA56
:102EE000D17C0CEB4C0324FA03F404F00704B4F196
:102EF000040C06D20EEB840CBDE810404CF0010C23
:102F00006047DFE80CF0070802024FF00040A0F530
:102F1000800010BD0846420018BFD2F1807288BF01
:102F200000F0004010BDFF2141EAD050C0057047BD
:102F300090EA010F48BF81F000413FF5B8AE421A58
:102F400004D882F00042A0EB020011444FEAD052B4
:102F50004FF07F4C1CEA410FA2EBD15318BF9CEA03
:102F6000026F4AD04FF0004C4CEA00204CEA01219D
:102F700021FA03FCB0EB0C0C0FD412F0FE0F36D08C
:102F80005FEA4C001DD5001240EBC25038BF7047BD
:102F90001CF03F0F18BF70470BE0A2F101025FEA7F
:102FA0001C2040EBC25038BF70471CF07F0F18BF89
:102FB0007047C3F12003994014BF401E20F0010068
:102FC000704780084FEA122308BF7047B0FA80FCB0
:102FD000A2EB0C02CCF1280C60FA0CF093EA122F51
:102FE00004BF00EBC25070474FEAC3707047130A2A
:102FF0005FEADC1008BF7047F6E79CEA026F04D076
:1030000010EA5C0F08BF0020704710B5FFF745FFBE
:1030100040DFF63E81F000407047FDF712BB0CF038
:103020000F03092B08BF082000F051800A2B0BD09A
:10303000082B18BF704708BF1CF0400F0AD04FF094
:1030400000004FF0000170471CF0400F18BF4FF018
:10305000004070471CF0100F08D020F0704300F0C3
:103060007F4242EAD3014FEA4370704700F060406C
:1030700021F07F4242EA000201F07F4040EA727094
:1030800070474FF0FF0212EAD0521CBF92F0FF03CC
:103090008B42C2BFD14200EBC1507047002A0AD018
:1030A000002B0BD0002900F00040A4BF40F0FE40F0
:1030B00040F40000704700F00040704743024FF0BA
:1030C0000B0C18BF4CF0806C7FF44CAE70471CF4B6
:1030D000801F11D01CF4E02F03D06FEACC314900DF
:1030E00070474FF04050EFF3008222F0704242EA06
:1030F000000282F3008870474FF000007047000024
:1031000000000000000000000000000000000000BF
:1031100000F8000000000000003330000000001044
:103120000C06100C0600000000000000000040C06B
:103130007840C0784000043F04043F04040000705D
:1031400088FC08300000001820FF211E0000F00855
:10315000F000E018000000211C031E211E0000F0FA
:103160000888700000001E21232419272110101642
:103170000E00000000000000000000000000000041
:1031800000E01804020000000007182040000002C0
:103190000418E00000000040201807000000404034
:1031A00080F0804040000202010F01020200000096
:1031B00000F0000000000101011F010101000000FA
:1031C00000000000000080B070000000000000005F
:1031D00000000000000000010101010101010000E8
:1031E000000000000000003030000000000000007F
:1031F000000080601804006018060100000000E074
:1032000010080810E000000F102020100F00001020
:1032100010F8000000000020203F20200000007077
:10322000080808887000003028242221300000306F
:103230000888884830000018202020110E00000067
:10324000C02010F8000000070424243F240000F8E8
:103250000888880808000019212020110E0000E0CD
:10326000108888180000000F112020110E0000386F
:103270000808C83808000000003F00000000007087
:10328000880808887000001C222121221C0000E010
:1032900010080810E0000000312222110F00000089
:1032A00000C0C0000000000000303000000000003E
:1032B00000800000000000008060000000000000AE
:1032C0008040201008000001020408102000404047
:1032D000404040404000040404040404040000088A
:1032E000102040800000002010080402010000703F
:1032F00048080808F0000000003036010000C03027
:10330000C828E810E0000718272423140B00000049
:10331000C038E0000000203C23020227382008F8D3
:10332000888888700000203F202020110E00C030C7
:10333000080808083800071820202010080008F89E
:1033400008080810E000203F202020100F0008F897
:103350008888E8081000203F20202320180008F863
:103360008888E8081000203F200003000000C030DB
:1033700008080838000007182020221E020008F85C
:1033800008000008F808203F210101213F20000823
:1033900008F8080800000020203F2020000000005E
:1033A0000808F8080800C08080807F00000008F846
:1033B00088C028180800203F20012638200008F87F
:1033C000080000000000203F20202020300008F8E6
:1033D000F800F8F80800203F003F003F200008F800
:1033E00030C00008F808203F200007183F00E01018
:1033F00008080810E0000F10202020100F0008F827
:1034000008080808F000203F210101010000E01039
:1034100008080810E0000F18242438504F0008F85E
:10342000888888887000203F2000030C30200070BE
:103430008808080838000038202121221C001808BC
:1034400008F8080818000000203F2000000008F8D5
:1034500008000008F808001F202020201F0008781E
:10346000880000C83808000007380E010000F8087E
:1034700000F80008F800033C0700073C03000818A8
:1034800068808068180820302C03032C302008380E
:10349000C800C83808000000203F200000001008C5
:1034A0000808C8380800203826212020180000000D
:1034B00000FE020202000000007F40404000000CBD
:1034C00030C000000000000000010638C00000020B
:1034D0000202FE000000004040407F0000000000AB
:1034E00004020202040000000000000000000000CE
:1034F00000000000000080808080808080800002CA
:1035000002040000000000000000000000000000B5
:103510008080808000000019242222223F2008F8A9
:10352000008080000000003F112020110E000000EC
:10353000008080800000000E11202020110000007B
:1035400000808088F800000E112020103F2000002D
:10355000808080800000001F222222221300008031
:1035600080F0888888180020203F2020000000007C
:10357000808080808000006B94949493600008F8B1
:10358000008080800000203F210000203F2000803C
:103590009898000000000020203F2020000000003C
:1035A00000809898000000C08080807F000008F8AC
:1035B000000080808000203F24022D302000000881
:1035C00008F8000000000020203F2020000080803C
:1035D000808080808000203F20003F20003F80804E
:1035E000008080800000203F210000203F2000005C
:1035F000808080800000001F202020201F0080800D
:1036000000808000000080FFA12020110E0000003B
:10361000008080808000000E112020A0FF8080802C
:1036200080008080800020203F21200001000000D9
:1036300080808080800000332424242419000080AE
:1036400080E0808000000000001F202000008080BB
:10365000000000808000001F202020103F2080807C
:1036600080000080808000010E300806010080800C
:103670000080008080800F300C030C300F00008031
:103680008000808080000020312E0E31200080805C
:1036900080000080808080818E701806010000808C
:1036A0008080808080000021302C222130000000AA
:1036B0000000807C020200000000003F404000004B
:1036C0000000FF00000000000000FF0000000002FA
:1036D000027C800000000040403F00000000000627
:1036E00001010202040400000000000000000000CC
:1036F00010080000FE300008E6B3A2001060020CC3
:10370000C000F8888888FF8888A8180004047C0313
:1037100080601F80432C102846818000E789B90013
:10372000403C10FF1010404848487F48C8484000BF
:10373000020602FF010100020A1242827F02020019
:10374000E5BE8B00001088C43310545454FF545409
:103750007C101000020100FF0010121212FF121262
:1037600012100000E58AA8004044C44444444010BC
:1037700010FF101010F00000103C131014B840306F
:103780000E014080403F000010100000F836000895
:1037900004000000F03600080102020304050607D9
:1037A00008090A0B0C0D0E0F10100000000000009D
:1037B00000000102030406070809000000000102DE
:1037C0000304000002400000000000A00000000010
:1037D00005400000000000C8000000000C40000090
:1037E0000000409C00000000194000000020BCBE0A
:1037F0000000000034400000BFC91B8E0000000420
:10380000B5400000504BCFD06607E2CF010000006A
:103810006C4100003E8251AADFEEA7340100000097
:10382000D9420000DCB5A0E23A301F97FFFFFFFF4E
:10383000B4450000FD25A0C8E9A3C14FFFFFFFFF6D
:10384000FF3F00000000008000000000FF3F00007C
:1038500000000080000000009438000800000020F4
:103860001C00000028010008B03800081C000020DF
:103870003C0B0000440100081C0000004300000055
:10388000F8FFFFFF0C0000000E0000000F0000001A
:103890002E000000000000000000000000000000FA
:1038A00001000000100000000000000000127A007B
:04000005080000ED02
:00000001FF
